:020000040800F2
:1000000048180020192800081514000817140008C3
:100010001B1400081F14000823140008000000002F
:10002000000000000000000000000000271400088D
:1000300029140008000000002B1400082D140008EB
:100040003328000833280008332800083328000824
:100050003328000833280008332800083328000814
:10006000AD120008011300084313000833280008EC
:1000700033280008332800083328000833280008F4
:1000800033280008332800083328000833280008E4
:1000900033280008332800083328000833280008D4
:1000A00033280008332800083328000833280008C4
:1000B00033280008A3050008211A00083328000887
:1000C00033280008332800083328000833280008A4
:1000D000332800088D270008EB170008491B00088B
:1000E00033280008332800083328000800F002F8FD
:1000F00000F092F80AA090E8000C82448344AAF130
:100100000107DA4501D100F087F8AFF2090EBAE82D
:100110000F0013F0010F18BFFB1A43F0010318473B
:10012000C8750000E8750000103A24BF78C878C18F
:10013000FAD8520724BF30C830C144BF04680C60ED
:10014000704700000023002400250026103A28BF35
:1001500078C1FBD8520728BF30C148BF0B60704739
:100160006E2905F0A381702905F01B85662907F02B
:100170000A80652907F00780672907F00480612954
:10018000AFF3008003681B0A28BF41F08001692992
:1001900004F0F086642904F0ED86752904F0EA86FF
:1001A0006F2905F0A984782905F0E784E92905F08D
:1001B0004384E42905F04084F52905F03D84EF29C6
:1001C00005F0A684F82905F0E6840368DB0928BF5A
:1001D00041F08001632905F0B283732905F0B783EC
:1001E000E32905F0C185F32905F0C6850020704795
:1001F0001FB504F0E2FF05F023FD040000200021FC
:1002000006F006FB401C60600020002106F0EAFAC0
:10021000E0601FBD10B510BD05F094FE1146FFF75C
:10022000E7FF00F007FB05F0C0FE03B4FFF7F2FFA5
:1002300003BC02F04DFA00000B49D1F800C04A6837
:100240005CF8043B1068184442F8040B8C4528BF46
:10025000A1F1DC0C8A4228BFA1F1DC02C1F800C088
:100260004A6020F000407047E011002070B5FD4961
:10027000086806F08BFC044622460B46FAA004F000
:100280002DFEF849486806F081FC044622460B46DC
:10029000F8A004F023FEF349886E06F077FC0446CC
:1002A00022460B46F6A004F019FEEE49886806F0D7
:1002B0006DFC044622460B46F5A004F00FFEE9490A
:1002C000C86806F063FC044622460B46F4A004F01E
:1002D00005FEE449C86E06F059FC044622460B466A
:1002E000F3A004F0FBFD70BD10B5F548008806F0E2
:1002F000C1FDDC490860F3480861F3484861F348F0
:100300008861F348C8616420A1F874004FF07E5002
:100310000866F048008806F0ADFDD2498860E948DB
:100320000862E9484862E9488862E948C86264208E
:10033000A1F876004FF07E50486610BD10B58AB027
:100340001421E54804F0A3FF142105A804F0C1FF1F
:100350001421E24804F09BFF1421E14804F097FFC8
:100360001421684604F0B5FF1421DE4804F08FFF25
:1003700002F06CF808B10AB010BD02F083F800B1C9
:10038000F9E702F0EFF8D849088002F098F8D74969
:100390000880D7480088401C00B2D549088008462C
:1003A000B0F9000014281CDDD048B0F9000006F0B8
:1003B00049FDAC494860CC48B0F9000006F042FD68
:1003C000A849C860BE48008806F054FDA5490860E9
:1003D000C048008806F04EFDA24988600020C4494C
:1003E0000880C248B0F90000002810DABF48008831
:1003F000404200B2BD490880BEA004F06FFD142148
:10040000B54804F044FFBBA1B34804F034FFB6483C
:10041000B0F90000002810DAB3480088404200B26A
:10042000B1490880B3A004F059FD1421AC4804F090
:100430002EFFB0A1AA4804F01EFF142105A804F065
:1004400048FFAA48B0F900000A2190FBF1F42246C7
:10045000A9A105A804F04EFD05A99F4804F00BFFD3
:10046000A6A19D4804F007FF142105A804F031FF60
:100470009E48B0F900000A2190FBF1F201FB120442
:1004800022469DA105A804F035FD05A9924804F077
:10049000F2FE914A9AA1914804F02CFD8F499CA04C
:1004A00004F01CFD1421684604F013FF8E48B0F9D7
:1004B00000000A2190FBF1F422468FA1684604F067
:1004C00019FD6946864804F0D6FE8CA1844804F0E4
:1004D000D2FE1421684604F0FCFE8348B0F9000007
:1004E0000A2190FBF1F201FB1204224682A1684628
:1004F00004F000FD69467A4804F0BDFE784A80A108
:10050000784804F0F7FC774981A004F0E7FC00BFCD
:1005100031E710B583480088401C82490880514863
:10052000B0F874000988884202DC00207D49088008
:100530007C48008806F09EFC04464A48816E2046AE
:1005400006F0ACFC04D20121774802F000FB03E086
:100550000121754802F0FDFA10BD10B573480088FE
:10056000401C724908803F48B0F8760009888842EC
:1005700002DC00206D4908806C48008806F07AFC97
:1005800004463848C16E204606F088FC04D2022199
:10059000654802F0DCFA03E00221634802F0D9FA70
:1005A00010BD10B50121624803F039FE0446A4B124
:1005B0002C48B0F87000401C2A49A1F87000084689
:1005C000B0F87200401CA1F872000121584803F0F5
:1005D0002FFEFFF79EFFFFF7C0FF10BDF8B5002408
:1005E000002600250020534908804FF47A7052A35A
:1005F00051A253A1009053A004F017F808B145F0A0
:10060000010500204B4908804FF4FA604AA34AA232
:100610004BA100904CA004F008F808B145F0020589
:100620000020444908804FF4FA6043A342A244A149
:10063000009047A003F0F9FF08B145F0080500203D
:100640003C490880002407E000203A4908806420E3
:1006500002F00BF8601CC4B24FF4FA6036A336A265
:100660007CE00000041000207069642E53763D2564
:10067000660D0A007069642E50763D25660D0A00ED
:100680007069642E4F55543D25660D0A0000000028
:100690007069642E5376313D25660D0A0000000016
:1006A0007069642E5076313D25660D0A0000000009
:1006B0007069642E4F5554313D25660D0A000000C7
:1006C000000000200000F041000048430024F44AEC
:1006D000007C124802000020C0030020D403002048
:1006E000E8030020FC030020180000201400002074
:1006F000160000202D000000256400002E000000E0
:1007000074656D70657261747572653A2573230046
:100710000D0A0D0A77656E64755F677072733D250B
:10072000730D0A001A000020001001401C00002078
:1007300000040040360000204E554C4C00000000E4
:100740004F4B000041540000415445300000000070
:1007500041542B4350494E3F00000000FBA1009044
:10076000FEA003F062FF012802D00A2CFFF66CAF56
:100770000020FD4908800A2C00D1F8BD4FF4FA6032
:10078000AFF24C03AFF24802F8A10090FAA003F0D8
:100790004CFF0020F4490880C82001F066FF4FF4A8
:1007A000FA60AFF26C03AFF27002AFF26C0100902E
:1007B000F4A003F03AFF0020EB490880C82001F0C4
:1007C00054FF0020E8490880C820F2A3F4A2F3A156
:1007D0000090F7A003F029FF04460020E2490880BA
:1007E0001420AFF2AC03AFF2B002EFA10090AFF271
:1007F000B80003F01AFF06460020DB49088001F02C
:10080000FCFAEBA20021084601F055FB4FF47A6098
:1008100001F02BFF012C05D0022C03D0032C01D0BA
:10082000012E05D12146ECA004F058FB0120A4E7DD
:100830000020A2E79CB001F045FF01F0D9FE4FF483
:10084000E13001F054FF642001F00FFF00F04CFF95
:1008500000F0E2FE00F099FF01221146E14802F0AB
:100860007AF942F2107001F000FF4FF4165001F0D7
:1008700033F84FF4E13001F019F900220121D94891
:1008800002F069F901F058FA0A2001F0EEFE01F0D9
:10089000B4FA0A2001F0E9FED3A20121084601F0D2
:1008A0000AFBD4A20321002001F005FB01F0CEFDDC
:1008B000D44804F013FBFFF717FD00F044FF01F0EC
:1008C000C4FB0121D04802F044F90221CE4802F0D5
:1008D00040F9FDE301F091FACCA20221002001F0E1
:1008E000EAFA4FF4FA6001F0C0FEFFF777FE00B9B4
:1008F000EFE701F082FAC9A20221002001F0DBFA41
:10090000C9A004F0EBFA4FF4FA6001F0AEFE01F07A
:1009100074FACBA20221002001F0CDFAC820AFF278
:10092000E813CBA29DA10090D1A003F07EFE4FF46E
:10093000FA6001F09AFE01F029FBFDE303F01CFFD1
:1009400004F0C8F8FFF7FAFCCD4ACEA1CF4804F076
:10095000D1FACE4A0421002001F0ADFACC4ACDA153
:10096000CE4804F0C7FACD4A0421072001F0A3FACB
:100970001E21CB4804F08BFC34210FA804F0A9FC05
:10098000C84800880A2190FBF1F42246AFF2982172
:100990000FA804F0AFFA0FA9C14804F06CFCAFF245
:1009A000A421BF4804F067FC34210FA804F091FC97
:1009B000BC4800880A2190FBF1F201FB1204224698
:1009C000AFF2CC210FA804F095FA0FA9B44804F0B7
:1009D00052FCB34AB4A1B64804F08CFAB44A0521DB
:1009E000002001F068FA1E21B24804F050FC3421C6
:1009F00002A804F06EFCB04800880A2190FBF1F4D4
:100A00002246AFF20C3102A804F074FA02A9A948F8
:100A100004F031FCAFF21C31A64804F02CFC342168
:100A200002A804F056FCA44800880A2190FBF1F2C9
:100A300001FB12042246AFF2403102A804F05AFA38
:100A400002A99C4804F017FC9A4A9CA19D4804F016
:100A500051FA9C4A0521072001F02DFA9A480078A6
:100A6000012805D199A20021084601F024FA04E0EA
:100A700098A20021084601F01EFAFFF7F7FB4FF499
:100A8000FA6001F0F2FD9448008800F4004000286C
:100A900058D092A004F022FA94A1954804F000FAEC
:100AA0009348807C41284ED101F0A7F991A2002102
:100AB000084601F000FAFF21904801F0B3F88F4892
:100AC00004F0BAFB8D49441806228DA1204604F09B
:100AD00027FC8A4804F0B0FB884944183E22844928
:100AE000891D204604F01CFC844804F0A5FB8349C2
:100AF000084485A10988018001F07FF983A20021C3
:100B0000084601F0D8F9854804F096FB20B1834AE5
:100B10000221002001F0CFF981A004F0DFF94FF4A9
:100B2000FA60AFF2EC33AFF2F03287A1009087A009
:100B300003F07BFD012807D000200B49088066499F
:100B40000880AFE39BE31DE106E100000D0A2B43A3
:100B50005245473A20302C310000000041542B43CD
:100B60005245473F0D0A0000360000202B43474105
:100B700054543A203100000041542B43474154540F
:100B80003F0D0A0041542B51494647434E543D30D6
:100B90000D0A0000434F4E4E454354204F4B00007A
:100BA000414C524541445920434F4E4E4543540019
:100BB00041542B51494F50454E3D22554450222C13
:100BC000223132352E37372E38312E323135222C24
:100BD0002231303031220000646174613D25640DA2
:100BE0000A000000000C014053544D33322B4D439A
:100BF000323000004750532047505253204C42534C
:100C000000000000807600080010014072656769EE
:100C1000737465725B2E2E5D00000000636F6E6E54
:100C20006563745B6F6B5D003D3D3D3DD2D1C1ACF2
:100C3000BDD3B7FECEF1C6F73D3D3D3D200D0A00C8
:100C40007374617274204750535B2E2E5D00000058
:100C50002B434D45204552524F523A204F706572FA
:100C60006174696F6E206661696C656400000000E4
:100C700041542B51474E5353433D310D0A00000060
:100C8000C003002077313A257300000034030020B0
:100C9000E803002077323A25730000007A03002031
:100CA0005C0300200000002074313A25730000002E
:100CB00010040020A20300200200002074323A2514
:100CC0007300000024040020040000204F6E652003
:100CD0000000000054776F003A0000202352455670
:100CE0002047505320444154413A0000230D0A004C
:100CF000500C002020475053206F6B005C000020F8
:100D0000244750524D4300001A00000073656E6482
:100D10002047505320646174610000005B01002093
:100D20002D2D2D2D2D2D2D2D2D2D73656E642047F0
:100D3000505320646174612D2D2D2D2D2D2D2D2DC1
:100D40002D2D2D0D0A0000000D0A3E0041542B519F
:100D50004953454E440D0A004FF4FA6001F085FCFA
:100D60004FF4FA60AFF23063F6A2F8A10090FA48AF
:100D700003F05BFC01287DD00020F8490880F84989
:100D800008808FE2F748807C562873D1FFF754FA29
:100D9000052190FBF1F201FB12000228F5D101F0D0
:100DA0002CF8F1A20221002001F085F8C820AFF252
:100DB0007863AFF21822AFF24C210090AFF24820D6
:100DC00003F033FCC82001F050FCC820AFF2986358
:100DD000AFF29C62AFF23C210090AFF2582003F0DA
:100DE00024FCC82001F041FCC820AFF2B463AFF28C
:100DF000B862E1A10090E3A003F017FC0128C4D180
:100E0000E4A004F06BF84FF47A7001F02EFCFF219F
:100E1000D14800F007FFFF21E84800F003FF6421FC
:100E2000E74800F0FFFE6421E64800F0FBFE0921E0
:100E3000E54800F0F7FE0921E44800F0F3FEE04841
:100E400004F0FAF9DE4944180622E149204604F08C
:100E500067FADC4804F0F0F9DA4944180622DC4964
:100E60000A39204604F05CFAD54804F083F900EB17
:100E7000400000E000E24000D6490860D14804F09C
:100E800079F900EB40004000D3490860D148D3A174
:100E90000268CD4804F02EF8CF48D0A10268CB48B4
:100EA00004F028F86421C64800F0BCFE6421C5485F
:100EB00000F0B8FEC44804F0BFF9072807D230207C
:100EC000BF490870C049BE4804F0D5F903E0BE49E7
:100ED000BB4804F08DF9BD4804F0AEF9072807D2ED
:100EE0003020B8490870B949B64804F0C4F903E0A5
:100EF000B649B44804F07CF9974804F09DF9964946
:100F000044180622AFF20821204604F009FAAB4843
:100F100004F092F9A94944180822B1A1204604F02E
:100F2000FFF98D4804F088F98B4944180E22AEA1D0
:100F3000204604F0F5F9A14804F07EF99F494418D1
:100F40000A22ADA1204604F0EBF9834804F074F9BD
:100F50008149441802229E49C91E204604F0E0F946
:100F60007D4804F069F97C494418022294492046DE
:100F700004F0D6F9914804F05FF990494418022230
:100F80009349C91E204604F0CBF98C4804F054F96B
:100F90008A49441802228E49204604F0C1F96E485D
:100FA00004F04AF96C4944180122AFF6B00120461A
:100FB00004F0B6F9814804F03FF980494418012251
:100FC000AFF6C801204604F0ABF9634804F034F9E9
:100FD0006149441805227A49891C204604F0A0F989
:100FE000764804F029F97549441804227849891C87
:100FF000204604F095F9584804F01EF95649441863
:1010000003227FA1204604F08BF96C4804F014F908
:101010006A4944180A227BA1204604F081F96748F6
:1010200004F00AF965494418032269490E3920463B
:1010300004F076F9614804F0FFF860494418022290
:1010400063490A39204604F06BF9434804F0F4F888
:101050004149441803225E490E39204604F060F9E4
:101060003D4804F0E9F83C4944180222554920461D
:1010700004F056F9384804F0DFF8374944180122E3
:10108000AFF68811204604F04BF94C4804F0D4F830
:101090004A4944180122AFF69C11204604F040F959
:1010A000464804F0C9F8454944180522484908391A
:1010B000204604F035F9284804F0BEF826494418C3
:1010C00005224049891C204604F02AF9224800E004
:1010D000EAE004F0B1F8204944181A224BA1204656
:1010E00004F01EF91C4804F0A7F81B490844AFF2AD
:1010F000E8310988018018494BA003F0EFFE00F0A9
:101100007CFE0A2001F0B1FA2C4A0121002000F0F7
:10111000D2FE4FF4FA60AFF6E013AFF6E412AFF28E
:10112000D8310090AFF2DC3003F07FFA012807D00D
:1011300000200A49088000E0B2E009490880B1E0D7
:101140007AE0000053454E44204F4B000D0A5345B2
:101150004E44204F4B0000005C0000203600002071
:101160003A000020500C002053454E44204C42537E
:1011700020444154410000002B5143454C4C4C4FFE
:10118000433A000041542B5143454C4C4C4F433D96
:10119000310D0A002D2D2D2D2D2D2D2D2D2D73656D
:1011A0006E64204C425320646174612D2D2D2D2DD1
:1011B0002D2D2D2D2D2D2D0D0A0000005B01002061
:1011C0005A020020BE020020220300202B03002030
:1011D0006B080020080000200C000020256C640033
:1011E0004C42533D000000002C3034333735342E50
:1011F0003030302C412C00004C41543A00000000AB
:101200002C4E2C002C4C4F4E3A0000002C452C301C
:101210002E31372C34332E30382C323130383137B0
:101220002C2C2C412A3400004C425320504F535454
:101230003D25730D0A0000000020584908804FF436
:10124000FA7001F012FA4FF4FA60AFF61433AFF20D
:101250000C12AFF208110090514803F0E6F9012892
:1012600005D000204D4908804E4908801AE0002032
:101270004A4908804B49088000204A49088047486D
:10128000008800F4004038B1AFF22871464803F0FE
:1012900007FE0020414908804FF4FA6001F0E5F9AB
:1012A000FFF74CBB00BF00BFFFF714BB10B5042015
:1012B00003F074F900281FD0052001F0D6F93B484F
:1012C000006858B93A480078012807D139480088A1
:1012D000401D3849088038A003F000FE33480068FC
:1012E00050B93348007838B93A480088401D394928
:1012F000088031A003F0F2FD042003F060F910BD76
:1013000010B5082003F04AF9B8B1052001F0ADF995
:101310002648001D006848B925480078401C24492B
:101320000870084601782CA003F0D8FD204800780A
:10133000022802DB00201E490870082003F03FF954
:1013400010BD10B5102003F029F9002821D0052088
:1013500001F08BF915480830006858B91448007836
:10136000012807D113480088401F1249088022A095
:1013700003F0B4FD0D480830006850B90C480078FF
:1013800038B914480088401F124908801AA003F099
:10139000A5FD102003F013F910BD00003600002059
:1013A0005C0000203A000020500800200801224282
:1013B00004000020000000200D0A0D096869732058
:1013C0006973205043322069732070726573730D06
:1013D0000A000000020000200D0A0D096869732050
:1013E0006973205043332069732070726573733DB5
:1013F00025630D0A000000000D0A0D0968697320BD
:101400006973205043342069732070726573730DC3
:101410000A000000704700BFFEE700BFFEE700BF04
:10142000FEE700BFFEE77047704770477047000057
:101430000CB50020019000906C48006840F48030AA
:101440006A49086000BF6948006800F400300090F5
:101450000198401C0190009818B90198B0F5A06F50
:10146000F1D16248006800F4003010B10120009012
:1014700001E0002000900098012843D15C480068FA
:1014800040F010005A4908600846006820F0030048
:1014900008600846006840F0020008605348406851
:1014A000524948600846406848600846406840F431
:1014B000806048600846406820F47C104860084618
:1014C000406840F4881048600846006840F080702A
:1014D000086000BF4548006800F000700028F9D09F
:1014E0004248406820F00300404948600846406890
:1014F00040F00200486000BF3C48406800F00C002B
:101500000828F9D10CBD10B5FFF792FF10BD10B53A
:101510003648006840F001003449086008464068D9
:10152000344908403149486008460068324908405B
:101530002E4908600846006820F4802008600846AC
:10154000406820F4FE0048604FF41F008860FFF7F9
:10155000DAFF4FF000602949086010BD10B5002186
:1015600000200022214B5B6803F00C0121B104290B
:1015700006D0082928D107E0214B224C236027E020
:10158000214B204C236023E0184B5B6803F4701060
:10159000164B5B6803F48032022303EB904022B9C0
:1015A0001A4B4343174C23600DE0104B5B6803F468
:1015B000003323B1164B4343124C236003E0124B1C
:1015C0004343104C236003E00D4B0E4C236000BFDF
:1015D00000BF064B5B68C3F303130E4CE15C094B81
:1015E0001B68CB40074C236010BD00000010024078
:1015F000002002400000FFF8FFFFF6FE08ED00E0CB
:1016000000127A0020000020001BB70000093D00F6
:10161000808D5B002400002008B50121102001F01E
:10162000A5FC0420ADF8000048208DF803006946B1
:101630002A4801F0DFF90820ADF8000048208DF8B5
:1016400003006946254801F0D5F91020ADF80000E7
:1016500048208DF803006946204801F0CBF908BD09
:1016600010B5044614B101201D4908701C480078CB
:1016700010B31C48006840B11A48001D006820B132
:10168000184808300068012816D10A2000F0EDFF44
:101690000020134908701348006808B9012010BDE4
:1016A0001048001D006808B90220F8E70D4808300E
:1016B000006888B90320F2E70A48006801280BD1C6
:1016C0000848001D0068012806D106480830006857
:1016D000012801D1024908700020E0E70010014014
:1016E000340000200801224208B501217C2001F0CD
:1016F0003DFC4020ADF8000010208DF803000320D1
:101700008DF8020069462D4801F074F940212B48FC
:1017100001F01DFA4FF48070ADF8000069462848CA
:1017200001F068F94FF48071254801F010FA0022A9
:101730004021224801F00FFA00224FF48071204826
:1017400001F009FA08BD08B50121102001F00EFCD6
:101750000120ADF8000010208DF8030003208DF863
:1017600002006946154801F045F90121134801F0CE
:10177000F0F90220ADF800006946104801F03AF98E
:1017800002210E4801F0E5F908BD08B50121082045
:1017900001F0ECFB0120ADF8000010208DF80300F3
:1017A00003208DF802006946064801F023F9002263
:1017B0000121044801F0CFF908BD000000100140EC
:1017C00000080140000C014010B5044644B100215E
:1017D000AD4802F0FBFC0121AB4802F063FA03E0E4
:1017E0000021A94802F05EFA10BD10B540F2255163
:1017F000A64801F0E3FD08B3A44801F05FFDC4B2C0
:10180000A3480088B0F5806F12DA00219E4802F0EC
:10181000DDFC9F48008810B90120FFF7D5FF9C48E8
:1018200001880088401C9A4A10809A48445405E078
:101830009748008840F400409549088010BD7FB566
:1018400005460C460121042001F09DFBADF8045033
:10185000ADF800400020ADF80600ADF80200694682
:10186000894801F0C3FE01221146874802F035FA8B
:101870001E208DF80C0001208DF80D0002208DF83F
:101880000E0001208DF80F0003A800F0EAFF7FBDD5
:1018900070B58CB006460C4615460121084601F08D
:1018A00058FB304602F0DCFC0194029510200390B6
:1018B000002004900590802006900020079008905A
:1018C00009904FF480500A9000200B9001A93046F7
:1018D00002F068FD0CB070BD10B586B00446012161
:1018E000042001F043FB0121480401F04CFB674850
:1018F00001F0A4FB0420ADF8100003208DF81200C5
:1019000018208DF8130004A9634801F073F808202B
:10191000ADF8100004208DF8130004A95E4801F012
:1019200069F800940020ADF80400ADF80600ADF8A9
:101930000800ADF80C000C20ADF80A0069465348C9
:1019400001F0BFFB01228021504801F077FC534A8F
:101950004E49091D5248FFF79BFF01214B4801F0FA
:101960003CFC012240F22551484801F042FC26206F
:101970008DF8140002208DF8150003208DF8160054
:1019800001208DF8170005A800F06BFF41F61F41FC
:101990006320FFF754FF00203D490880FFF714FF44
:1019A00006B010BD70B504460D460021204602F079
:1019B00024FD2946204602F035FD0121204602F093
:1019C0001CFD70BD0FB438B505A800903348009ACF
:1019D000049903F071FA0020009000BF3048001D08
:1019E00000680028FAD12D4803F026FC84B2214675
:1019F0002B48FFF7D7FF38BC5DF814FB10B5044641
:101A00000021214802F0E2FB1F482C300088002012
:101A10001D492C310880084600882043088010BDED
:101A200010B50121184802F006FC10B30121164838
:101A300002F012FC1B480078E0B11B480078401C03
:101A400019490870084600781649097888421AD161
:101A5000002015490870134908700D48008840F4AB
:101A600000400B4908800020FFF7AEFE6320FFF71F
:101A7000C5FF08E00648008840F40040044908809B
:101A80000020FFF7A1FE10BD000800400044004008
:101A900036000020500800200008014050040020BB
:101AA000800002405A0000203800002010B586B0A7
:101AB00004460121604801F066FA604801F0BEFA70
:101AC0004FF48060ADF8140003208DF81600182044
:101AD0008DF8170005A95A4800F08CFF4FF40060FC
:101AE000ADF8140004208DF8170005A9544800F043
:101AF00081FF27208DF8000003208DF801008DF86C
:101B0000020001208DF80300684600F0AAFE01944F
:101B10000020ADF80800ADF80A00ADF80C00ADF8F3
:101B200010000C20ADF80E0001A9444801F0C9FADC
:101B3000012240F22551414801F05BFB01213F4861
:101B400001F04BFB06B010BD10B540F225513B48EB
:101B500001F034FC30B3394801F0B0FB10B3374822
:101B600001F0ACFBC4B23748008800F40040C8B9AB
:101B70003448008800F4804060B10A2C03D0002073
:101B80003049088020E02F48008840F400402D496B
:101B9000088019E00D2C06D12A48008840F48040C6
:101BA0002849088010E027480088C0F30D00264926
:101BB0000C5424480088401C2249088008460088AC
:101BC000C72801DD0020088010BD70B504460D4611
:101BD0002946204601F06EFB00BF8021204601F01F
:101BE000D7FB0028F9D070BD2DE9F04107460D461E
:101BF0001646002400BF295D3846FFF7E6FF641C47
:101C0000B442F8D3BDE8F08170B506460C46002515
:101C100000BF615D3046FFF7D8FF6D1C605D002896
:101C2000F7D170BD0246002002E000231354401C8F
:101C30008842FAD3704700000800040000480040C2
:101C4000000C01403A000020500C002070B5044602
:101C50000D46082625B97101B54800F07AFF04E069
:101C60004FF48071B24800F072FF15E02021B148B6
:101C700000F06FFF04F0800020B18021AD4800F03B
:101C800066FF03E08021AB4800F063FF2021A948F4
:101C900000F05DFF6006040E3000A6F10101CEB237
:101CA000E4D170BD08B50121142001F05FF94FF4B3
:101CB0008050ADF8000003208DF8020010208DF850
:101CC000030069469B4800F095FE4FF40060ADF8B4
:101CD000000003208DF8020010208DF803006946F3
:101CE000944800F087FE4FF48070ADF800000320A8
:101CF0008DF8020010208DF8030069468C4800F032
:101D000079FE2020ADF8000003208DF8020010209D
:101D10008DF803006946874800F06CFE8020ADF81E
:101D2000000003208DF8020010208DF803006946A2
:101D3000804800F05FFE08BD10B5FFF7B3FF4FF419
:101D400080517C4800F005FF052000F08EFC4FF428
:101D50008051784800F0FBFE4FF40061754800F0B8
:101D6000F6FE052000F081FC4FF40061714800F0A0
:101D7000F0FE00212120FFF769FF0021C820FFF7B6
:101D800065FF00210620FFF761FF00211320FFF708
:101D90005DFF00212020FFF759FF00210C20FFF7F5
:101DA00055FF10BD10B5044600212120FFF74EFF5E
:101DB00044F080000021FFF749FF00212020FFF7B9
:101DC00045FF10BD70B504460D460D2C00DD0D24F9
:101DD000052D00DD052504EB44004006040E44F00B
:101DE00080000021FFF732FF0A2000F03EFC45F0A2
:101DF00040000021FFF72AFF70BD10B500218020B0
:101E0000FFF724FF052000F030FC00214020FFF701
:101E10001DFF002405E001210020FFF717FF601CD3
:101E200084B2B4F5FC7FF6DB10BD70B50446A4F1B6
:101E30002000C4B200250AE004EB44013E4A02EB54
:101E40004101485D0121FFF701FF681CC5B2062D65
:101E5000F2DB70BD2DE9F04107460E4615463146CE
:101E60003846FFF7AFFF00240AE005EB4501334A8F
:101E700002EBC101085D0121FFF7E8FE601CC4B25E
:101E80000C2CF2DB0A2000F0F0FB701CC1B23846CB
:101E9000FFF798FF0C240AE005EB4501274A02EB07
:101EA000C101085D0121FFF7D1FE601CC4B2182CEE
:101EB000F2DBBDE8F0812DE9F04780468946164601
:101EC0003546002400270DB9BDE8F08700BF1C4847
:101ED00002F0AAFA0028FAD149464046FFF772FFFD
:101EE00011E000240CE02878203800EB4000124973
:101EF00001EB4000025D38467F1C12490A54641C05
:101F0000062CF0DB6D1C28780028EAD10022384628
:101F10007F1C0C490A54002405E00A49085D012190
:101F2000FFF794FE641CBC42F7DB00BFCCE7000067
:101F30000010014000080140827300088A71000807
:101F400030000240180D00200EB50121042001F0E0
:101F50001AF842F20F70ADF804004720ADF8000007
:101F60000020ADF80600ADF802006B4801F06AFAF7
:101F70006946694801F03AFB0121674801F092FE89
:101F800001221146644801F0A8FE0EBD1FB50121D3
:101F9000022000F0F8FF40F2E730ADF808004720DB
:101FA000ADF804000020ADF80A00ADF806005B486B
:101FB00001F048FA01A9594801F018FB01215748DE
:101FC00001F070FE1D208DF8000001208DF8010049
:101FD00002208DF8020001208DF80300684600F011
:101FE00040FC012211464D4801F077FE1FBD7FB530
:101FF00005460C460121084600F0C5FFADF8085023
:10200000ADF804400020ADF80A00ADF8060001A9C3
:102010004FF0804001F0EAFA01221146900701F0EA
:102020005CFE1C208DF8000000208DF801000320CC
:102030008DF8020001208DF80300684600F011FCC5
:102040000121880701F02EFE7FBD0EB50121084653
:1020500000F08CFF0221084600F0E2FD0420019010
:1020600000208DF808000C208DF8090001208DF863
:102070000A0001A802F02CFA0321022000F0D0FD92
:102080000820019000208DF808000C208DF8090030
:1020900001208DF80A0001A802F01AFA042102209A
:1020A00000F0BEFD1020019000208DF808000C20EB
:1020B0008DF8090001208DF80A0001A802F008FA45
:1020C00008208DF8000000208DF801008DF8020036
:1020D00001208DF80300684600F0C3FB09208DF84D
:1020E000000000208DF801008DF8020001208DF81D
:1020F0000300684600F0B5FB0A208DF800000020C0
:102100008DF801008DF8020001208DF8030068466B
:1021100000F0A7FB0EBD00000008004000040040D6
:1021200010B5FE48006820F47000FC4908600846BD
:10213000006840F4401008600020F949086040F24F
:10214000EE2000F06EFA0120F649C1F894010F204C
:1021500000F067FA10BD10B5F348006820F4702055
:10216000F14908600846006840F4403008600020EB
:10217000EE49086040F2EE2000F053FA0120EC49ED
:10218000C1F890010F2000F04CFA10BD10B50024EA
:10219000E248006820F47000E049086008460068E2
:1021A00040F40000086004E0601CC4B2012000F0AC
:1021B00038FADB488038006808B1C82CF4DBC82C3A
:1021C00001DB012010BD002404E0601CC4B201202A
:1021D00000F027FAD2488038006808B9F02CF4DB08
:1021E000F02C01DB0120EDE70020EBE710B5002427
:1021F000CD48006820F47020CB490860084600688C
:1022000040F40020086004E0601CC4B2012000F02B
:1022100008FAC6488038006808B1C82CF4DBC82C1E
:1022200001DB012010BD002404E0601CC4B20120C9
:1022300000F0F7F9BD488038006808B9F02CF4DBED
:10224000F02C01DB0120EDE70020EBE710B5B348EF
:10225000006820F47000B14908600846006840F446
:10226000401008600020AE490860022000F0D9F953
:102270000120AC49C1F89401A848006820F470001E
:10228000A64908600846006840F4000008600C2079
:1022900000F0C7F9A2488038006808B1012400E0C6
:1022A0000024322000F0BDF9204610BD10B59E4834
:1022B000006820F470209C4908600846006840F4DB
:1022C00040300860002099490860022000F0A9F918
:1022D00001209749C1F890019348006820F47020CC
:1022E000914908600846006840F4002008600C200E
:1022F00000F097F98D488038006808B1012400E0AB
:102300000024322000F08DF9204610BD70B5002663
:10231000012508E0FFF79AFF0446E00140EA660065
:10232000C6B2681CC5B2082DF4DD304670BD70B56C
:102330000026012508E0FFF7B9FF0446E00140EA66
:102340006600C6B2681CC5B2082DF4DD304670BD0B
:1023500070B504467148006820F470006F49086049
:102360000846006840F440100860012520E004F0B1
:10237000010664106EB1002069490860022000F077
:1023800050F901206749C1F894013C2000F049F957
:102390000CE00020624908603C2000F042F9012076
:1023A0006049C1F89401022000F03BF9681CC5B2F5
:1023B000082DDCDD70BD70B504465B48006820F474
:1023C0007020594908600846006840F440300860B1
:1023D000012520E004F0010664106EB1002053498D
:1023E0000860022000F01DF901205149C1F8900158
:1023F0003C2000F016F90CE000204C4908603C201D
:1024000000F00FF901204A49C1F89001022000F0C4
:1024100008F9681CC5B2082DDCDD70BD10B5FFF7EA
:102420007FFEFFF7B3FECC20FFF792FF4420FFF7BB
:102430008FFF10BD10B5FFF78EFEFFF7D7FECC2043
:10244000FFF7B9FF4420FFF7B6FF10BD10B53948BC
:10245000806940F01000374988613048006820F4F6
:1024600070002E4908600846006840F4401008607B
:102470000846C06840F02000C860FFF751FEFFF733
:1024800085FE10BD10B50121042000F06FFD264827
:10249000006820F47020244908600846006840F471
:1024A0004030086020480C30006840F010001E49A1
:1024B0000C310860FFF74FFEFFF798FE10BD2DE9C5
:1024C000F84FFFF7ABFFFFF72BFEFFF75FFECC20C7
:1024D000FFF73EFFBE20FFF73BFFFFF717FF8346E6
:1024E000FFF714FF0446072C08DDE043C4B26FEA8F
:1024F0000B0000F0FF0B4FF0000A01E04FF0010A63
:10250000A1464FEA09200FFA80F909EB0B000FFAF8
:1025100080F9484604F096FC00900DE00010014060
:102520009401224200002242000801409001214211
:10253000000021420010024004F028FB0746002260
:102540002A4B04F025FA054604F0B6F90FFA80F993
:10255000BAF1000F02D04846BDE8F88FC9F100007B
:1025600000B2F9E72DE9F84FFFF764FFFFF7F3FD3D
:10257000FFF73CFECC20FFF71EFFBE20FFF71BFF3E
:10258000FFF7D5FE8346FFF7D2FE0446072C08DD91
:10259000E043C4B26FEA0B0000F0FF0B4FF0000AFB
:1025A00001E04FF0010AA1464FEA09200FFA80F935
:1025B00009EB0B000FFA80F9484604F043FC009049
:1025C00004F0E4FA07460022084B04F0E1F905465E
:1025D00004F072F90FFA80F9BAF1000F02D0484600
:1025E000BDE8F88FC9F1000000B2F9E70000E43F50
:1025F00010B56FF0040000F07EF92E4800682E49F7
:10260000B0FBF1F02D4908700846007800EB40015E
:10261000C1EBC0104FF6FF7101EAC00028490880E5
:1026200010BD0146254A12784A434FF0E0235A6113
:1026300000229A611A46126942F001021A6100BF33
:102640004FF0E022106900F001021AB100F480326C
:10265000002AF5D04FF0E022126922F001024FF07B
:10266000E0231A6100229A6170470146144A1288D9
:102670004A434FF0E0235A6100229A611A461269D8
:1026800042F001021A6100BF4FF0E022106900F031
:1026900001021AB100F48032002AF5D04FF0E02296
:1026A000126922F001024FF0E0231A6100229A61C0
:1026B0007047000020000020001BB7003C000020F5
:1026C0003E00002010B54FF4A06000F0C5F810BD2A
:1026D000014600BF704700BF4B4A128802F040021B
:1026E000002AF9D0C2B2484B1B1D1A80704710B5A2
:1026F00086B00446012144F2040000F037FC424851
:1027000000F09CFC4FF40070ADF8140003208DF82D
:10271000160018208DF8170005A93C4800F06AF94A
:102720004FF48060ADF8140004208DF8170005A95F
:10273000364800F05FF925208DF8000003208DF861
:1027400001008DF8020001208DF80300684600F0BA
:1027500088F801940020ADF80800ADF80A00ADF843
:102760000C00ADF810000C20ADF80E0001A92648B1
:1027700000F0A7FC012240F22551234800F039FD6A
:102780000121214800F029FD06B010BD10B540F22E
:1027900025511D4800F012FE10B31B4800F08EFDBD
:1027A000C4B21B48008800F40040C8B9184800882B
:1027B00000F4804060B10A2C03D000201449088046
:1027C00020E01348008840F400401149088019E0D7
:1027D0000D2C06D10E48008840F480400C4908803A
:1027E00010E00B480088C0F30D000A490C5408485B
:1027F0000088401C0649088008460088C72801DD7B
:102800000020088010BD0000003801400008014091
:10281000440000203C0F0020094880470948004739
:10282000FEE7FEE7FEE7FEE7FEE7FEE7FEE7FEE780
:10283000FEE7FEE704480549054A064B70470000DD
:102840000F150008ED00000848120020481800206D
:10285000481400204814002031490143314A1160D6
:10286000704770B5002100230F22C47804B32D4CAB
:10287000246804F4E064C4F5E064210AC1F10403AF
:10288000CA40447804FA03F18478144021430901D2
:10289000254C0678A155047804F01F050124AC40AE
:1028A00005786D11AD0005F1E025C5F8004109E09E
:1028B000047804F01F050124AC401C4D0678761105
:1028C00045F8264070BD1A4A0A400243154B1B1FAB
:1028D0001A60704739B1134A121D12680243114B36
:1028E0001B1D1A6006E00F4A121D126882430D4B31
:1028F0001B1D1A607047042808D14FF0E0210969B8
:1029000041F004014FF0E022116107E04FF0E021B7
:10291000096921F004014FF0E022116170470000C5
:102920000000FA050CED00E000E400E080E100E0CA
:1029300080FFFF1F10B50446CC48844208D1012116
:10294000042000F02DFB0021042000F029FB46E0CC
:10295000C748844208D10121082000F021FB002152
:10296000082000F01DFB3AE0C248844208D1012152
:10297000102000F015FB0021102000F011FB2EE0CC
:10298000BD48844208D10121202000F009FB00212C
:10299000202000F005FB22E0B848844208D1012144
:1029A000402000F0FDFA0021402000F0F9FA16E086
:1029B000B348844208D10121802000F0F1FA0021BF
:1029C000802000F0EDFA0AE0AE48844207D10121F0
:1029D000801500F0E5FA0021A01500F0E1FA10BD25
:1029E00010B50121084600F0DBFA0021012000F0BB
:1029F000D7FA10BD2DE9F04102460025002600203F
:102A000000230024002791F803C00CF00F0591F873
:102A100003C00CF0100CBCF1000F03D091F802C001
:102A20004CEA050591F800C0BCF1000F31D01468E4
:102A300000202BE04FF0010C0CFA00F3B1F800C0BD
:102A40000CEA03069E4220D183004FF00F0C0CFAD3
:102A500003F7BC4305FA03FC4CEA040491F803C0F5
:102A6000BCF1280F06D14FF0010C0CFA00FCC2F8A3
:102A700014C00AE091F803C0BCF1480F05D14FF033
:102A8000010C0CFA00FCC2F810C0401C0828D1D37D
:102A90001460B1F800C0BCF1FF0F34DD54680020B1
:102AA0002EE000F1080C4FF0010808FA0CF3B1F821
:102AB00000C00CEA03069E4221D183004FF00F0CA8
:102AC0000CFA03F7BC4305FA03FC4CEA040491F842
:102AD00003C0BCF1280F05D100F1080C08FA0CF86E
:102AE000C2F8148091F803C0BCF1480F07D100F17F
:102AF000080C4FF0010808FA0CF8C2F81080401CCE
:102B00000828CED35460BDE8F0814FF6FF710180F4
:102B1000022181700421C170704702460020936831
:102B20000B400BB1012000E000207047014688688F
:102B300080B2704702460020D3680B400BB10120E1
:102B400000E0002070470146C86880B2704701610C
:102B50007047416170470AB1016100E0416170470F
:102B6000C16070474FF480320A43826181618261A3
:102B700082698269704702460020434B18684FF60D
:102B80008073184040EA021008433F4B18607047BA
:102B90003E49C8617047F0B50A4600230024002171
:102BA000002500F00046B6F1004F02D1364EF16923
:102BB00001E0354E7168C0F3034583B200F440165E
:102BC000B6F5401F08D121F070612F4E766826F0CF
:102BD00070662D4F7E6012E000F48016B6F5801FFF
:102BE00006D1032606FA05F4A14341F0706106E020
:102BF000460D360103FA06F6B14341F0706122B189
:102C0000460D360103FA06F6314300F00046B6F1F0
:102C1000004F02D11C4EF16101E01B4E7160F0BD0E
:102C200030B500228B071C0F0F2303FA04F2164B5A
:102C300008338C1053F824309343134C08348D1010
:102C400044F8253023468C1053F824308C07240F89
:102C500000FA04F423430C4C08348D1044F825305A
:102C600030BD0A49DC3108607047000000080140AF
:102C7000000C014000100140001401400018014008
:102C8000001C0140002001400000014000002042E3
:102C9000DF48006840F00100DD49086008464068F0
:102CA000DC490840DA49486008460068DA490840CB
:102CB000D74908600846006820F48020086008466C
:102CC000406820F4FE0048604FF41F0088607047A1
:102CD000CF49096821F48031CD4A11601146096855
:102CE00021F480211160B0F5803F03D0B0F5802F32
:102CF0000ED106E0C649096841F48031C44A11602A
:102D000007E0C349096841F4A021C14A116000E00D
:102D100000BF00BF704710B501460022002300200D
:102D20004A11012A02D1BA4C236806E0022A02D1D4
:102D3000B74C236A01E0B64C636A01F01F0201241C
:102D400094401C400CB1012000E0002010BD38B5BB
:102D5000002000900024002500BF3120FFF7DBFF9A
:102D600005460098401C00900098B0F5A06F01D077
:102D7000002DF2D03120FFF7CEFF08B1012400E092
:102D80000024204638BD01460020A14A106820F0EA
:102D9000F80040EAC10010607047A0490860704721
:102DA000024600209A4B586820F47C1042EA010346
:102DB0001843974B5860704798490866704701461A
:102DC0000020934A506820F0030008435060704789
:102DD0008F48406800F00C007047014600208C4A84
:102DE000506820F0F0000843506070470146002012
:102DF000874A506820F4E0600843506070470146FD
:102E00000020834A506820F4605040EAC1005060BE
:102E1000704729B17E4A527A02437D4B5A7204E0D0
:102E20007B4A527A82437A4B5A7270477B49D83137
:102E30000860704701460020754A506820F4404001
:102E40000843506070470021714A20321170704A67
:102E500082F82010012802D004280AD104E00121C0
:102E60006B4A2032117005E00521694A2032117049
:102E700000E000BF00BF70476949086070476449BF
:102E8000096A0143624A1162704765494439086022
:102E9000704730B500210022002400235C4D6D688E
:102EA00005F00C0121B1042905D0082923D105E042
:102EB0005C4D056022E05C4D05601FE0544D6D687F
:102EC00005F47012524D6D6805F48034022505EB4F
:102ED00092421CB9554D554305600BE04C4D6D6851
:102EE00005F400351DB1524D5543056002E04E4DCD
:102EF0005543056002E04B4D056000BF00BF444DE7
:102F00006D6805F0F00109094A4D6B5C0568DD400C
:102F100045603F4D6D6805F4E061090A454D6B5C05
:102F20004568DD4085603A4D6D6805F46051C90A19
:102F3000404D6B5C4568DD40C560354D6D6805F4FE
:102F40004041890B3C4D6B5CC568B5FBF3F50561F1
:102F500030BD29B12E4A526902432D4B5A6104E01B
:102F60002B4A526982432A4B5A61704729B1284A39
:102F700092690243264B9A6104E0254A9269824392
:102F8000234B9A61704729B1214AD2690243204BF1
:102F9000DA6104E01E4AD26982431D4BDA61704750
:102FA00029B11B4AD2680243194BDA6004E0184A7F
:102FB000D2688243164BDA60704729B1144A12690D
:102FC0000243134B1A6104E0114A12698243104B09
:102FD0001A61704712494039086070470F49C86448
:102FE00070470B49C87170470948406A40F08070CB
:102FF00007494862704701460020054A92680A4026
:103000000AB1012000E00020704701498872704732
:10301000001002400000FFF8FFFFF6FE00004242F1
:103020008004424200127A00001BB70000093D00F4
:10303000808D5B00460000205600002010B504463D
:10304000FB48844209D101218803FFF7A9FF002131
:103050004FF48040FFF7A4FF32E0F648844209D1E4
:1030600001214804FFF7A9FF00214FF40030FFF7CA
:10307000A4FF25E0F048844209D101218804FFF72C
:103080009CFF00214FF48020FFF797FF18E0EB48EA
:10309000844209D10121C804FFF78FFF00214FF4BA
:1030A0000020FFF78AFF0BE0E548844208D10121A8
:1030B0000805FFF782FF00214FF48010FFF77DFF26
:1030C00010BD2DE9F04786B005460E460024A24605
:1030D00000BFA1460027B08900B100BF2F462C8A4F
:1030E0004CF6FF700440F08804432C82AC894EF605
:1030F000F3100440B08831890843718908430443C0
:10310000AC81AC8A4FF6FF400440B0890443AC82E6
:1031100001A8FFF7BEFEC648874202D1DDF810A025
:1031200001E0DDF80CA0A88900F4004040B10AEBF2
:10313000CA0000EB0A1031684900B0FBF1F807E063
:103140000AEBCA0000EB0A1031688900B0FBF1F805
:103150006420B8FBF0F004012009642101FB108910
:10316000A88900F4004040B1322000EBC900B0FB58
:10317000F1F000F00700044308E0322000EB0910F2
:103180006421B0FBF1F000F00F0004432C8106B085
:10319000BDE8F0874FF41651016000218180C180A5
:1031A00001810C21418100218181704710B50246C7
:1031B0000020108A4FF2FF0318400B884C882343ED
:1031C0008C882343CC8823431843108210BD0021F0
:1031D000018041808180C180704721B1828942F4A1
:1031E0000052828104E082894DF6FF731A40828189
:1031F0007047F0B50346002400260025002040F665
:103200006A17B94200D100BF1846C1F3421401F059
:103210001F06012707FA06F5012C01D10C3004E046
:10322000022C01D1103000E014301AB107682F438E
:10323000076002E00768AF430760F0BD1AB1838AF8
:103240000B43838202E0838A8B4383827047028A26
:103250004FF6F0731A400282028A0A4302827047D4
:1032600082894FF2FF731A40828182890A438281E8
:10327000704721B1828942F00202828104E0828992
:103280004FF6FD731A4082817047028A4FF6DF7352
:103290001A400282028A0A430282704721B1028ADE
:1032A00042F48042028204E0028A4BF6FF731A4025
:1032B00002827047C1F30802828070470146888805
:1032C000C0F308007047818941F001018181704796
:1032D000028BD2B20283028B42EA01220283704740
:1032E000028B02F47F420283028B0A4302837047FF
:1032F00021B1828A42F02002828204E0828A4FF663
:10330000DF731A408282704721B1828A42F0100234
:10331000828204E0828A4FF6EF731A4082827047FD
:1033200021B1828A42F00802828204E0828A4FF64A
:10333000F7731A408282704721B1828942F40042B9
:10334000828103E08289C2F30E028281704721B13B
:10335000828A42F40062828204E0828A4FF2FF7322
:103360001A4082827047828A4FF6FB731A4082822B
:10337000828A0A438282704721B1828A42F0020225
:10338000828204E0828A4FF6FD731A40828270477F
:1033900002460020B1F5007F00D100BF13880B402A
:1033A0000BB1012000E00020704701F40072B2F57B
:1033B000007F00D100BFCA430280704770B502464B
:1033C000002400230025002040F66A16B14200D1F7
:1033D00000BFC1F3421501F01F03012606FA03F3F3
:1033E000012D02D19689334006E0022D02D1168AC2
:1033F000334001E0968A33400C12012606FA04F4A9
:103400001688344013B10CB1012000E0002070BDDB
:1034100010B50022002340F66A14A14200D100BF7B
:103420000A1201249440A3B2DC43048010BD0000C2
:10343000003801400044004000480040004C00407B
:103440000050004010B50446FE48844208D10121D6
:10345000C014FFF7A5FD0021E014FFF7A1FDC4E0B3
:10346000B4F1804F08D101210846FFF7A6FD0021E5
:103470000120FFF7A2FDB8E0F348844208D1012102
:103480000220FFF79AFD00210220FFF796FDACE035
:10349000EE48844208D101210420FFF78EFD00216F
:1034A0000420FFF78AFDA0E0E948844208D1012109
:1034B0000820FFF782FD00210820FFF77EFD94E041
:1034C000E448844208D101211020FFF776FD002155
:1034D0001020FFF772FD88E0DF48844208D1012107
:1034E0002020FFF76AFD00212020FFF766FD7CE029
:1034F000DA48844208D101214014FFF751FD002130
:103500006014FFF74DFD70E0D548844209D10121D8
:10351000C804FFF745FD00214FF40020FFF740FDF0
:1035200063E0D048844209D101210805FFF738FD46
:1035300000214FF48010FFF733FD56E0CA48844263
:1035400009D101214805FFF72BFD00214FF40010A0
:10355000FFF726FD49E0C548844208D101214020FB
:10356000FFF72BFD00214020FFF727FD3DE0C0487D
:10357000844208D101218020FFF71FFD0021802017
:10358000FFF71BFD31E0BB48844208D101218015C3
:10359000FFF713FD0021A015FFF70FFD25E0B6484A
:1035A000844209D101210804FFF7FAFC00214FF4FD
:1035B0008030FFF7F5FC18E0B048844209D10121C2
:1035C0004804FFF7EDFC00214FF40030FFF7E8FC62
:1035D0000BE0AB48844208D101218804FFF7E0FCEE
:1035E00000214FF48020FFF7DBFC10BD0022028891
:1035F000944B98420ED0994B98420BD0B0F1804F2B
:1036000008D0914B984205D0904B984202D0904BF5
:10361000984204D14FF68F731A404B881A438D4B52
:10362000984207D08C4B984204D04FF6FF431A4083
:10363000CB881A4302808B8883850B880385814B56
:1036400098420BD0854B984208D08B4B984205D0BE
:103650008A4B984202D08A4B984201D10B7A03865A
:1036600001238382704770B5002400220023058C5B
:103670004FF6FE7635400584028C8388048B4FF626
:103680008F752C40B51E2C400D882C43751E2A408A
:103690000D892A434D882A436A4DA8420BD06F4DAD
:1036A000A84208D0744DA84205D0744DA84202D05B
:1036B000734DA84213D14FF6F7752A404D892A431E
:1036C0004FF6FB752A408D882A434FF6FF652B4045
:1036D0004FF6FF552B408D892B43CD892B4383809B
:1036E0000483CD888586028470BD70B500240022D5
:1036F0000023058C4FF6EF7635400584028C8388D5
:10370000048B48F6FF752C404FF6FF452C400D8882
:103710004FF6FF7606EA05252C434FF6DF752A4063
:103720000D8906EA05152A434D8806EA05152A4340
:10373000444DA84202D0494DA8421DD14FF67F7595
:103740002A404D894FF6FF7606EA05152A434FF6C3
:10375000BF752A408D8806EA05152A434FF6FF35C6
:103760002B404FF2FF752B408D8906EA85052B43D0
:10377000CD8906EA85052B4383800483CD880587A0
:10378000028470BD70B5002400220023058C4FF622
:10379000FF6635400584028C8388848B4FF68F75D5
:1037A0002C404FF6FC752C400D882C434FF6FF55EE
:1037B0002A400D894FF6FF7606EA05252A434D88F3
:1037C00006EA05252A431F4DA84202D0234DA842F0
:1037D0001DD14FF2FF752A404D894FF6FF7606EA5C
:1037E00005252A434FF6FF352A408D8806EA052530
:1037F0002A434EF6FF752B404DF6FF752B408D8901
:1038000006EA05152B43CD8906EA05152B4383806F
:103810008483CD888587028470BD70B50022002323
:103820000024058C4EF6FF7635400584038C848891
:10383000828B48F6FF752A404FF6FF452A400D88D7
:1038400020E00000002C014000040040000800407F
:10385000000C004000100040001400400034014003
:10386000004C01400050014000540140001800404D
:10387000001C004000200040004001400044014086
:10388000004801404FF6FF7606EA05252A434DF62B
:10389000FF752B400D8906EA05352B434D8806EA56
:1038A00005352B43FA4DA84202D0FA4DA84208D163
:1038B0004BF6FF752C408D894FF6FF7606EA85158D
:1038C0002C4384808283CD88A0F84050038470BD4F
:1038D000828B4FF2FF331A408283828B4FF6FF7345
:1038E00003EA01231A4382837047F0B50C4615465C
:1038F000002200210026078C4EF6FF7C07EA0C0709
:103900000784828B018C4FF6FF7707EA043640F676
:10391000FF473A404FF6FF7707EA05273A434FF64D
:10392000FF7707EA03373A43D94FB8420ED0D94F51
:10393000B8420BD0B0F1804F08D0D74FB84205D075
:10394000D64FB84202D0D64FB84206D14DF6FF77D7
:10395000394046F48057394305E047F6FF57394070
:1039600044F48057394382830184F0BD828B4FF643
:10397000F3731A408283828B0A4382837047F0B5C7
:103980000C461546002200210026078C4FF6FF6CDE
:1039900007EA0C070784828B018C4FF6FF7707EA52
:1039A00004264FF60C773A404FF6FF7707EA0317E5
:1039B0002F433A43B64FB8420ED0B64FB8420BD061
:1039C000B0F1804F08D0B44FB84205D0B34FB842E1
:1039D00002D0B34FB84206D14FF6FF57394046F4F4
:1039E0008077394305E04FF2FF57394044F4807740
:1039F000394382830184F0BD028B4FF2FF331A40BA
:103A00000283028B4FF6FF7303EA01231A430283FA
:103A10007047F0B50C461546002200210026078CA1
:103A20004FF6EF7C07EA0C070784028B018C4FF6F8
:103A3000FF7707EA041640F6FF473A404FF6FF7754
:103A400007EA03373A434FF6FF7707EA05273A4379
:103A50008F4FB8420ED08F4FB8420BD0B0F1804F8D
:103A600008D08D4FB84205D08C4FB84202D08C4F51
:103A7000B84206D14FF6DF77394046F01007394398
:103A800005E04FF65F77394044F010073943028371
:103A90000184F0BD028B4FF6F3731A400283028B50
:103AA0000A4302837047F0B50C46154600220021F8
:103AB000068C4FF6FE773E400684028B018C4FF653
:103AC0000C7632407E1C06EA03162E433243704EBB
:103AD000B0420ED06F4EB0420BD0B0F1804F08D044
:103AE0006D4EB04205D06D4EB04202D06C4EB04229
:103AF00006D14FF6FD76314044F00106314305E032
:103B00004FF6F576314044F00106314302830184DB
:103B1000F0BD70B505460C465D4885420ED05D4847
:103B200085420BD0B5F1804F08D05B48854205D067
:103B30005A48854202D05A48854200D100E000BF71
:103B4000208850B92389A28861882846FFF7ABFFF7
:103B5000E1882846FFF79EFF25E0208804280AD147
:103B60002389A28861882846FFF753FFE188284609
:103B7000FFF742FF17E0208808280AD12389A2888E
:103B800061882846FFF7FBFEE1882846FFF7EEFE36
:103B900009E02389A28861882846FFF7A6FEE1880C
:103BA0002846FFF795FE70BD2DE9F04105460C460D
:103BB00000260127608808B9022600E00026A088B8
:103BC000012801D1022700E001272088A0B923891C
:103BD000A28861882846FFF766FFE1882846FFF73C
:103BE00059FF23893A4631462846FFF712FFE188FC
:103BF0002846FFF701FF13E02389A2886188284641
:103C0000FFF707FFE1882846FFF7F6FE23893A46CB
:103C100031462846FFF747FFE1882846FFF73AFF7D
:103C2000BDE8F0810A884B881A438B881A43CB88F9
:103C30001A430B891A434B891A438B891A43A0F8FC
:103C4000442070474FF6FF71818000210180C180C0
:103C50004180017270470021018041808180C180D4
:103C6000018141818181C1817047002101804180B2
:103C7000012181800021C1800181704700210180E4
:103C800041808180C1800181418181817047000034
:103C9000002C0140003401400004004000080040B6
:103CA000000C004021B1028842F00102028004E0D1
:103CB00002884FF6FE731A400280704731B1B0F8A7
:103CC000442042F40042A0F8442005E0B0F844202B
:103CD000C2F30E02A0F8442070471AB183890B4347
:103CE000838102E083898B4383817047818270479F
:103CF00041EA0203A0F8483070471AB183890B43A8
:103D0000838102E083898B438381704701894FF669
:103D1000F8721140018170470A46002101894FF66F
:103D20008F73194011430181704730B504460D4629
:103D300029462046FFF7F0FF208940F00700208148
:103D400030BD2DE9F04104460D4616461F46602D54
:103D500006D13B46012231462046FFF75AFE05E0D8
:103D60003B46012231462046FFF79DFE294620466C
:103D7000FFF7D2FF208940F007002081BDE8F081E5
:103D800030B50C4600210189C9B24FF6FF7505EA2E
:103D90000325154325432943018130BD2DE9F04119
:103DA00005460E4617469846002443463A46314695
:103DB0002846FFF7E5FF2C894FF6F870044044F0E1
:103DC00007044FF68F70044044F070042C81BDE866
:103DD000F081F0B504460D4616461F463B46324676
:103DE00029462046FFF7CCFF208940F480402081FF
:103DF000F0BD0185828270470A46002101884FF696
:103E00008F731940114301807047F0B50C46154679
:103E10001E460021002200230189028B038C4FF6ED
:103E2000F877394021434FF6FC473A4040F20117FA
:103E30003A434FF6DD773B404FF6FF7707EA061728
:103E40002F433B43018102830384F0BD0A460021D6
:103E5000018B4FF68F7319401143018370470A4657
:103E60000021018B48F6FF7319404FF6FF7303EAF8
:103E700002231943018370470A460021818B4FF6C4
:103E80008F7319401143818370470A460021818B4B
:103E900048F6FF7319404FF6FF7303EA02231943F4
:103EA0008183704721B1028842F08002028004E0E1
:103EB00002884FF67F731A400280704721B18288D2
:103EC00042F00402828004E082884FF6FB731A40BD
:103ED0008280704721B1828842F00802828004E02B
:103EE00082884FF6F7731A408280704721B182882A
:103EF00042F00102828004E082884FF6FE731A408D
:103F0000828070470A460021018B4FF6F7731940F3
:103F10001143018370470A460021018B4FF2FF7362
:103F200019404FF6FF7303EA0223194301837047D8
:103F30000A460021818B4FF6F773194011438183A4
:103F400070470A460021818B4FF2FF7319404FF6EC
:103F5000FF7303EA02231943818370470A46002155
:103F6000018B4FF6FB7319401143018370470A46DA
:103F70000021018B4FF6FF3319404FF6FF7303EA20
:103F800002231943018370470A460021818B4FF6B3
:103F9000FB7319401143818370470A460021818BCE
:103FA0004FF6FF3319404FF6FF7303EA022319431C
:103FB000818370470A460021018B4FF67F731940B9
:103FC0001143018370470A460021018BC1F30E01A2
:103FD0004FF6FF7303EA02231943018370470A4631
:103FE0000021818B4FF67F73194011438183704705
:103FF0000A460021818BC1F30E014FF6FF7303EADD
:1040000002231943818370470A460021018C4FF631
:10401000FD7319401143018470470A460021018C49
:104020004FF6F77319401143018470470A46002187
:10403000018C4FF6DF7319404FF6FF7303EA02134A
:104040001943018470470A460021018C4FF67F73A3
:1040500019404FF6FF7303EA0213194301847047B6
:104060000A460021018C4FF6FF5319404FF6FF73AB
:1040700003EA02231943018470470A460021018C98
:104080004FF2FF7319404FF6FF7303EA02231943FF
:10409000018470470A460021018C4DF6FF731940D8
:1040A0004FF6FF7303EA023319430184704730B5BA
:1040B000002301248C40A3B2048C9C430484048C10
:1040C00002FA01F5ADB22C43048430BD30B50023B3
:1040D00004248C40A3B2048C9C430484048C02FA14
:1040E00001F5ADB22C43048430BD70B50346002009
:1040F00000241846183001258D40ACB21D8CA54314
:104100001D8409B1082909D100EB6100056825F07B
:10411000700505600568154305600EE00D1FC5F3C9
:104120004E052844056825F4E045056005684FF60E
:10413000FF7606EA02263543056070BD21B102888C
:1041400042F00202028004E002884FF6FD731A403A
:104150000280704721B1028842F00402028004E02C
:1041600002884FF6FB731A400280704721B18288A3
:1041700042F08002828004E082884FF67F731A400A
:104180008280704702884FF6F7731A4002800288D7
:104190000A430280704782884FF68F731A408280EC
:1041A00082880A438280704702894FF6F8731A406A
:1041B000028102890A430281704702894FF67F73A8
:1041C0001A40028102890A43028170478184704744
:1041D0008185704781867047018770478187704766
:1041E000A0F84010704702884FF6FF431A40028043
:1041F00002880A43028070470146888E7047014654
:10420000088F70470146888F70470146B1F840001B
:1042100070470146888C70470146088D70470246FA
:104220000020138A0B400BB1012000E000207047F2
:10423000CA430282704730B50246002000230024A2
:10424000158A05EA0103958905EA010413B10CB149
:10425000012000E0002030BDCA4302827047000008
:1042600001684FF6FE72114001600021016041605B
:104270008160C1608D49884208D18C4908394968FC
:1042800041F00F01894A083A51608AE087491431A8
:10429000884208D185490839496841F0F001834ACC
:1042A000083A51607DE081492831884208D17F4930
:1042B0000839496841F470617C4A083A516070E0FD
:1042C0007A493C31884208D178490839496841F433
:1042D0007041764A083A516063E07449503188422F
:1042E00008D172490839496841F470216F4A083A87
:1042F000516056E06D496431884208D16B490839F4
:10430000496841F47001694A083A516049E06749D7
:104310007831884208D165490839496841F07061AF
:10432000624A083A51603CE06149884206D1011F67
:10433000096841F00F01021F116032E05C4914313D
:10434000884208D15A49091F096841F0F001584ACA
:10435000121F116025E056492831884208D154497E
:10436000091F096841F47061514A121F116018E079
:104370004F493C31884208D14D49091F096841F431
:1043800070414B4A121F11600BE04949503188427D
:1043900007D14749091F096841F47021444A121F97
:1043A0001160704710B50022026847F6F0739A4317
:1043B0000C6A8B6823430C6923434C6923438C6943
:1043C0002343CC6923434C6A23438C6A23431A4317
:1043D0000260CB6843600B6883604B68C36010BDAC
:1043E0000021016041608160C160016141618161C2
:1043F000C161016241628162704721B1026842F08D
:104400000102026004E002684FF6FE731A40026087
:1044100070471AB103680B43036002E003688B43E3
:1044200003607047416070470146486880B270473A
:1044300001460020002201F080531BB11C4B083BB9
:104440001A6802E0194B083B1A6802EA01030BB133
:10445000012000E00020704700F0805119B114499C
:10446000091F086002E01149083948607047014699
:104470000020002201F080531BB10D4B083B1A684D
:1044800002E00A4B083B1A6802EA01030BB1012063
:1044900000E00020704700F0805119B10449091F65
:1044A000086002E00149083948607047080002408E
:1044B00008040240002044490860091D0860091DE5
:1044C0000860091D086041483F4914310860704781
:1044D00000213D498279002A3AD00A4612680368D1
:1044E0009A430B461A600A1D126803689A430B1D13
:1044F0001A60027911440A6803681A430A60324A52
:104500000832126803689A432F4B08331A601A1D49
:10451000126803689A432C4B0C331A604279102AB4
:104520000ED11A1F126803681A43274B08331A600A
:104530001A1D126803681A43234B0C331A600DE0EE
:104540002149427911440A6803681A430A6005E068
:10455000027911440A6803689A430A60704700218F
:10456000016001710C214171002181717047164970
:10457000103109680143144A103211607047014636
:104580000020114A143212680A400AB1012000E0EA
:10459000002070470C491431086070470146002024
:1045A0000022094B1B6803EA0102074B14331B6806
:1045B0000B4013B10AB1012000E00020704702490E
:1045C000143108607047000000040140FFFF0F0035
:1045D00010B504465E48008800F4004070B1002029
:1045E0005B490988C1F30E015A4A505411465AA03A
:1045F00000F074FC14B100205549088010BD70B55E
:10460000044600255248008800F4004058B10020BC
:104610004F490988C1F30E014E4A505421461046B5
:1046200000F0D4FD0546284670BD2DE9F04705464B
:104630000E4617469846089C4FF000090020444952
:104640000880FF2D07D800BF444800680028FBD130
:1046500043490D8007E0294642A0FDF7B3F92946FA
:1046600040A000F03BFC40F24C40844206D10B20BD
:104670003E49087042F20F70FDF7C0F906B12CB93F
:10468000B8F1000F00D00CB99FB394B32DE03848B7
:10469000007848B10020FCF7E3FF8146B9F1030F31
:1046A00002D10220BDE8F0870A20FDF7DEFF28488E
:1046B000008800F40040C0B12EA1264800F0F0FBB5
:1046C0003046FFF79CFF08B10120EBE73846FFF7C3
:1046D00096FF08B10220E5E74046FFF790FF08B1DA
:1046E0000320DFE700201A490880601E80B2040022
:1046F000CDD14846D6E70146302905DB392903DC10
:10470000A1F13000C0B27047412905DB462903DC26
:10471000A1F13700C0B2F6E7612905DB662903DCA9
:10472000A1F15700C0B2EEE70020ECE701460929ED
:1047300003DC01F13000C0B270470A2905DB0F2904
:1047400003DC01F13700C0B2F6E73020F4E70000E7
:10475000360000205008002025730000840002402D
:104760000444004025730D0A000000005A00002098
:104770005B0000200D0A00002DE9F05FFE49086B88
:1047800002F004FA05462A460B46FCA000F0A6FB00
:10479000F949B1F8700002F06DFB0546F648416931
:1047A000284602F07BFB01D2BDE8F09FF24A516837
:1047B000106802F073FCF04908630A46116B106937
:1047C00002F0A0FBEC49C8640A46116B906B02F042
:1047D00009FAE94988630A46516B106B02F05EFCE6
:1047E0000746E54A9169506902F06AFA8046E24854
:1047F0000169404602F086FB8146DF48816B4846EE
:1048000002F080FB0546DC480169284602F07AFB8D
:10481000D94988640A465169D06902F051FA824642
:10482000D5490869514602F06DFB83463946584622
:1048300002F068FBD04908650A46916CD06C02F022
:10484000D1F90546CC48016D284602F0CBF9044663
:10485000C949B1F8740002F00DFB0546214602F08B
:104860001DFB07D2C449B1F8740002F003FBC24932
:1048700088660BE00021204602F010FB04D2BE48FF
:10488000006EBD49886601E0BB488466BA48006B8B
:10489000B94948630020A1F8700000BF84E72DE902
:1048A000F04F85B0B449B1F8700002F0E3FA054664
:1048B000B1484169284602F0F1FA02D205B0BDE8DC
:1048C000F08FAD48D0F80090484602F05FF90546F9
:1048D000AD4AAE4B02F05CF807468846A6494868E8
:1048E00002F054F982463A46434602F015F802D2E5
:1048F0000020A1498867A048806F3C280DD8484611
:1049000002F044F907464FF03332A14B02F040F871
:10491000054601F093FF984908609748806F3C284E
:1049200010D99548806F64280CD8484602F02EF9BB
:104930000746954A974B02F02BF8054601F07EFF9B
:104940008D4908608C48806F642811D98A48806F2F
:10495000C8280DD8484602F019F907464FF03332FF
:104960008D4B02F015F8054601F068FF824908609A
:104970008148806FC82811D97F48806FB0F5967F35
:104980000CD8484602F002F90746844A844B01F0ED
:10499000FFFF054601F052FF774908607648806FB7
:1049A000B0F5967F12D97448806FB0F5C87F0DD8E6
:1049B000484602F0EBF807464FF06632794B01F0BB
:1049C000E7FF054601F03AFF6B4908606A48806FCF
:1049D000B0F5C87F02D96848C0F80090664A5168AF
:1049E000106802F05BFB644908630A46116B1069AA
:1049F00002F088FA6049C8640A46116B906B02F0B5
:104A0000F1F85D4988630A46516B106B02F046FB72
:104A10000490594A9169506902F052F9039056483E
:104A20000169039802F06EFA02905348816B029874
:104A300002F068FA054650480169284602F062FA19
:104A40004D4988640A465169D06902F039F90190EC
:104A500049490869019902F055FA009004990098B3
:104A600002F050FA444908650A46916CD06C02F095
:104A7000B9F805464048016D284602F0B3F80446EF
:104A80003D49B1F8740002F0F5F90546214602F0FF
:104A900005FA07D23849B1F8740002F0EBF936494B
:104AA00088660BE00021204602F0F8F904D2324873
:104AB000006E3149886601E02F4884662E48006BFD
:104AC0002D4948630020A1F870000846C0F8009006
:104AD00000BFF3E62DE9F05F2749C86B02F056F8F6
:104AE00005462A460B4630A000F0F8F92249B1F8F5
:104AF000720002F0BFF905461F48416A284602F0DD
:104B0000CDF901D2BDE8F09F1B4AD168906802F050
:104B1000C5FA1949C8630A46D16B106A02F0F2F966
:104B2000154988650A46D16B506C02F05BF8124952
:104B300048640A46116CD06B02F0B0FA07460E4A80
:104B4000916A506A02F0BCF880460B48016A404600
:104B500002F0D8F981460848416C484602F0D2F983
:104B600005460548016A284602F0CCF90249486525
:104B70000A46516AD06A1FE0041000207069642E52
:104B8000456B3D25660D0A009A9999999999E13FDF
:104B90003333E33F9999E93F3333EB3FCDCCCCCC72
:104BA000CCCCEC3F6666EE3F7069642E456B313DC0
:104BB00025660D0A0000000002F082F88246AE4928
:104BC000086A514602F09EF983463946584602F07B
:104BD00099F9A949C8650A46516D906D02F002F82D
:104BE0000546A548C16D284601F0FCFF0446A249D0
:104BF000B1F8760002F03EF90546214602F04EF982
:104C000007D29D49B1F8760002F034F99A49C86696
:104C10000BE00021204602F041F904D29648406E94
:104C20009549C86601E09448C4669348C06B9249B0
:104C300008640020A1F8720000BF63E72DE9F04F7F
:104C400085B08D49B1F8720002F014F905468A4822
:104C5000416A284602F022F902D205B0BDE8F08F81
:104C60008548D0F80890484601F090FF0546834AF1
:104C7000834B01F08DFE074688467F49C86801F0E6
:104C800085FF82463A46434601F046FE02D20020A6
:104C90007949C8677848C06F3C280DD8484601F06C
:104CA00075FF07464FF03332764B01F071FE054633
:104CB00001F0C4FD704988606F48C06F3C2810D96E
:104CC0006D48C06F64280CD8484601F05FFF074666
:104CD0006A4A6D4B01F05CFE054601F0AFFD664986
:104CE00088606548C06F40F24C41884211D96248E3
:104CF000C06FC8280DD8484601F048FF07464FF05E
:104D00003332624B01F044FE054601F097FD5A49EB
:104D100088605948C06FC82811D95748C06FB0F58E
:104D2000967F0CD8484601F031FF0746584A594B48
:104D300001F02EFE054601F081FD4F4988604E4886
:104D4000C06FB0F5967F12D94B48C06FB0F5C87FE1
:104D50000DD8484601F01AFF07464FF066324E4B19
:104D600001F016FE054601F069FD4349886042489E
:104D7000C06FB0F5C87F02D93F48C0F808903E4ADE
:104D8000D168906802F08AF93B49C8630A46D16B42
:104D9000106A02F0B7F8384988650A46D16B506C42
:104DA00001F020FF344948640A46116CD06B02F0D0
:104DB00075F90490304A916A506A01F081FF0390BE
:104DC0002D48016A039802F09DF802902A48416C30
:104DD000029802F097F805462748016A284602F033
:104DE00091F8254948650A46516AD06A01F068FF82
:104DF00001902149086A019902F084F80090049911
:104E0000009802F07FF81C49C8650A46516D906D04
:104E100001F0E8FE05461848C16D284601F0E2FEA3
:104E200004461549B1F8760002F024F805462146FB
:104E300002F034F807D21049B1F8760002F01AF8FF
:104E40000D49C8660BE00021204602F027F804D285
:104E50000948406E0849C86601E00748C46606482C
:104E6000C06B054908640020A1F872000846C0F82C
:104E7000089000BFF1E60000041000209A9999996B
:104E80009999E13F3333E33F9999E93F3333EB3F5E
:104E9000CDCCCCCCCCCCEC3F6666EE3F704700006E
:104EA0000FB4044910B503AA029800F055FD10BCD8
:104EB0005DF814FB400000201CB50C46064B7B44FB
:104EC00069460090204600F018FD0446002069461F
:104ED00000F026FD20461CBD5F0A00000FB4044907
:104EE00010B503AA029800F037FD10BC5DF814FB62
:104EF000400000200FB41CB5084B06AA7B4469464D
:104F00000090059800F0F9FC04460020694600F086
:104F100007FD20461CBC5DF814FB0000210A0000C0
:104F200070B50C460546012A05D02878800600D5C4
:104F3000EA69002302E0012305E05B1C934202D2F0
:104F4000E05C0028F9D1A869E618C01AA861286AAF
:104F500018442862284600F017FA04E0D5E9012138
:104F600014F8010B9047B442F8D3284600F022FA17
:104F700070BD00002DE9F041064600241068752937
:104F8000314616A510D000F026FA002802DA404279
:104F900013A507E031688A0701D512A502E0490789
:104FA00004D511A5012401E000F01EFA00210A2217
:104FB00006F1240709E0B0FBF2FCB0FBF2F302FBC0
:104FC0001C00303078541846491C0028F3D1234681
:104FD0002A463046BDE8F04100F00FBA000000005C
:104FE0002D0000002B000000200000002DE9F05FE4
:104FF000894604464FF0000ADFF874B1FB44C0F85C
:1050000020A02046E1688847002874D0252806D0D3
:10501000D4E901219047206A401C2062F1E7002674
:105020005F462046E16888472028054607DB312D8A
:1050300005D2781910F8200C08B10643F1E7B00743
:1050400001D526F00406C4F81CA00027C4F818A057
:105050002A2D09D0284601F0BEFB38B304EB87089F
:10506000303DC8F8185019E059F8041B204604EBED
:1050700087029161E1688847012F054618D1E069F0
:10508000002820DA26F020061DE0D8F8180000EBF2
:10509000800005EB40003038C8F818002046E16871
:1050A0008847054601F097FB0028EED1012F0AD072
:1050B0002E2D08D12046E16888477F1C0546022F27
:1050C00046F02006C4DBA069002803DA404246F01F
:1050D0000106A061F00701D026F010066C2D0BD060
:1050E000682D09D04C2D39D06A2D35D0742D35D08E
:1050F0007A2D33D016E038E0E1682F462046884705
:10510000B842054609D16C2F26D04FF48060E16883
:10511000064320468847054604E06C2F1AD04FF41A
:10512000807006430DB3A5F14100192802D820353F
:1051300046F400664A462946204626604E46FBF75E
:105140000FF880B101280BD0F61D26F0070000F102
:10515000080956E74020E4E78020D8E70020D6E79A
:1051600006F104094DE7284652E7206ABDE8F09FA2
:10517000AA25000070B5064600F002F9046805464D
:1051800030460A22002100F017FD2C6070BD00009F
:105190000B4910B5A1F17C020A4CC2E93712372144
:1051A00006E000EB104342F82130074B00FB0340C0
:1051B0000B1EA1F10101F4DC10BD0120E8E70000A5
:1051C00080110020E119D666CD0D010030B50546ED
:1051D0000B462A4613F8014B12F8010B08B1A04206
:1051E000F8D01CB1002802D06D1CF1E7284630BD74
:1051F00040EA0103024630B59B0710D14FF001345D
:1052000000E008C208C91D1B9D4315EAC41FF8D061
:1052100013F0FF0102F8011B0DD01B0AF8E711F88B
:10522000013B002B02F8013B05D011F8013B002B9C
:1052300002F8013BF3D130BD10B5431C02E010F879
:10524000011B71B18107FAD14FF0013202C88C1AEB
:105250008C4314EAC211F9D0C01A0A0603D0C01E4A
:1052600010BDC01A10BD0A0401D0801E10BD090275
:10527000FCD0401E10BD421E12F8013F002BFBD196
:1052800011F8013B002B02F8013BF9D170474FF0B8
:1052900000020429C0F0128010F0030C00F01B8003
:1052A000CCF1040CBCF1020F18BF00F8012BA8BF11
:1052B00020F8022BA1EB0C0100F00DB85FEAC17CD5
:1052C00024BF00F8012B00F8012B48BF00F8012B88
:1052D00070474FF0000200B51346944696462039B9
:1052E00022BFA0E80C50A0E80C50B1F12001BFF49F
:1052F000F7AF090728BFA0E80C5048BF0CC05DF805
:1053000004EB890028BF40F8042B08BF704748BF52
:1053100020F8022B11F0804F18BF00F8012B7047C6
:1053200010B5044610F0030F08BF11F0030F40F052
:1053300015804FF0013E121FC0F20E8051F8043B61
:10534000A3EB0E0C2CEA030C1CEACE1C08BF40F8A1
:10535000043BF0D0A1F1040102F10402521E08DB6B
:1053600011F8013B002B00F8013BF7D11146FFF784
:105370008EFF204610BD7047704770477047000091
:1053800000487047E811002070B504468569006840
:10539000C10601D5302600E02026C00707D070BD29
:1053A000D4E9012130469047206A401C20626D1EDE
:1053B000F6D570BD70B5044685690078C00707D181
:1053C00070BDD4E9012120209047206A401C206252
:1053D0006D1EF6D570BD09684A0501D540B270470B
:1053E000C905FCD500B2704709684A0501D5C0B2AD
:1053F0007047C905FCD580B270472DE9F0470D46CE
:1054000099469246044600F124080168880604D5AE
:10541000E06921F01001216000E00120A84201DDD7
:10542000471B00E00027A1697A1902EB0900081A5E
:10543000A0612078C00602D42046FFF7A5FF002611
:1054400008E0D4E901211AF806009047206A401CC0
:10545000761C20624E45F4DB2078C0060AD5204633
:10546000FFF792FF06E0D4E9012130209047206A3F
:10547000401C2062381EA7F10107F4DC07E0D4E9E4
:10548000012118F805009047206A401C2062281E60
:10549000A5F10105F3DC2046FFF78CFF207800061C
:1054A00002D50220BDE8F0870120FBE71168026801
:1054B000006A530501D508700AE0D30501D50880BC
:1054C00006E0130603D5C217C1E9000200E0086038
:1054D0000120704770472DE9FF4F0C461E464FF0E4
:1054E000FF378BB0D2E90001DDF860800A908A4670
:1054F000C1F30A5505B93D46002108464FF00000AA
:10550000BAF1000F00F4400005DA00EB80004FF420
:10551000400101EA50004FEA9059B9F1010F00DD56
:10552000B9460A9850EA4A000ED044F61050A5F247
:10553000FF3545432F14B8F1000F1ED07542291EC8
:105540001EDDC9F100021CE0B8F1010F4FF00000B0
:1055500001D0302103E0F24305E02154401CB04269
:10556000FBDB30460022002121540B99C1F8088052
:10557000C1E900200FB0BDE8F08FBD1B6D1CDEE758
:105580004A4600DA694206A800F04AFC06AB93E8F6
:10559000070003AB83E8070050460A9900F04CFD72
:1055A0008DE80700A0F500501F3800900398002DEB
:1055B00009DD42F21F014A46084403A903906846E8
:1055C00000F0ABFF08E0A0F500504A461F3803A9E1
:1055D0000390684600F0B5FF8DE807000004000C5A
:1055E00003D04FF0FF30410800E01046B8F1000F43
:1055F00003D00022009215461EE0751E05D400F06F
:1056000023FB303262556D1EF9D5B34601220843A3
:1056100002D000227F1C04E02078302801D1002233
:105620007F1E002A099786D01DE0112D07DA00F0B1
:105630000BFB303262556D1C50EA0102F5D1084374
:1056400002D00098C8B10EE00021681E05E0235C7E
:10565000625C63542254401E491C8142F7DBAB4616
:10566000A81B401E0990002004F80B000B98099A13
:10567000C0F80880C0E9002B7CE711264FF0000835
:1056800059E72DE9F04F88460446D21D22F0070164
:1056900091B0D1E90001CDE90A0101F088F8024694
:1056A0000B98C00F01D02D2007E02068810701D59D
:1056B0002B2002E0202101EAC000032A099001D03A
:1056C000072A05DB03464146204600F003FB0BE1B9
:1056D0002078800601D5E06900E00620B8F1650F6A
:1056E000814606D0B8F1660F18D0B8F1670F70D1B7
:1056F00031E00020B9F1110F009001DB112301E02E
:1057000009F101030AAA01A90CA8FFF7E4FEDDE9EB
:105710000C70002609F10105834647E001204B4645
:1057200000904FF000470AAA01A90CA8FFF7D3FE8A
:10573000DDE90DB00C995D46002610B909F10100B4
:105740000D18B9EB050003D4C0F1FF3609F10105CE
:10575000A5EB09002BE0B9F1010F01DA4FF00109C7
:105760000020B9F1110F0090484601DD112300E03F
:1057700003460AAA01A90CA8FFF7ADFEDDE90C70EB
:105780004D4600268346207800070AD4AB4500DA50
:105790005D4601A8012D04DD411911F8011C3029D5
:1057A00007D04F4502DA17F1040F04DA01208246D0
:1057B0000FE06D1EEEE7002F02DCED1B3E4403E020
:1057C000781CA84200DD7D1CB81B00F1010A4FF0D7
:1057D00000472078000703D4AA4501DB4FF0FF3AC9
:1057E0000021B7F1004F0DF143088DF8431024D08C
:1057F00002202B23002F01DA7F422D230A21021ED3
:10580000A0F1010000DC5FB197FBF1FC97FBF1F226
:1058100001FB1C7C17460CF1300C08F801CDEEE7BB
:10582000A8F1010003702188090501D5452100E098
:105830006521A0F1010800F8011C09980FA9A1EB4E
:105840000807FF1D00B10120411901EBEA70A169B1
:105850003844081A401EA0612078C00602D42046B1
:10586000FFF792FD099828B1D4E901219047206AF9
:10587000401C20622078C00622D52046FFF784FD18
:105880001EE0002E04DBB34502DD01A8805D00E0D0
:105890003020D4E901219047206A401C2062761C08
:1058A000AAF101005FEA000A0AD100F0C9F9C06854
:1058B0000168405CD4E901219047206A401C2062C5
:1058C000281EA5F10105DCDC07E0D4E9012118F868
:1058D000010B9047206A401C2062381EA7F1010787
:1058E000F3DC2046FFF766FD032011B043E600001D
:1058F00001694A1C02610878704700B58FB0CDE994
:1059000001310021059105497944CDE90310114683
:105910006846FFF76BFB0FB000BD0000E5FFFFFF1F
:105920000A6802F8010B0A60704710B5436913B1A9
:10593000AFF3008001E0FFF7F3FA012010BD127809
:1059400000F124010A7000224A700122EDE711687B
:105950004FF0FF32E9E70000074B70B50D467B447E
:10596000FFF7CBFF0446284600F0C8FA10B14FF00D
:10597000FF3070BD204670BD75CDFFFF2DE9FF5F84
:1059800015468A460446DFF8AC80F8440027D8E97B
:1059900000103E46CDE9001010E03AF816106A46B5
:1059A00002A800F0AFFA411C07D02178890603D580
:1059B000E269391891420DD80744761C2078800698
:1059C00002D5E069B84205DDAE42E6DB3AF81600E2
:1059D0000028E2D1A069C01BA0612046FFF7D4FCDB
:1059E000D8E90010CDE90010002017E03AF81810AF
:1059F0006A4602A800F086FAB0F1FF3F81460BD05C
:105A000000250DF1080B05E0D4E901211BF8050084
:105A100090476D1C4D45F7D308F10100B042804618
:105A2000E4DB206A384420622046FFF7C3FCBDE86F
:105A3000FF9F00002E1C00002DE9F0418046D21D82
:105A400022F007020025D2E90002F52915A614D09C
:105A5000011E72F1000106DA0023D0EB030063EBB4
:105A6000020211A608E0D8F800108B0701D50FA696
:105A700002E0490701D50EA601251146002408F1D0
:105A8000240704E000F0E0F830323A55641C50EA94
:105A90000102F7D12B46324621464046BDE8F0418F
:105AA000FFF7ABBC000000002D0000002B00000041
:105AB0002000000030B4002100F1240408E002F0CE
:105AC0000705D208303542EA4372DB086554491CA9
:105AD00052EA0305F3D10468002310A2250708D574
